:020000040000FA
:1000000002641C7FFC7E817DE07C0F126814E52475
:10001000FFE523FE900914EEF0A3EFF0AF24AE232A
:10002000AD22AC21781012139E900812EFF0AF248D
:10003000AE23AD22AC21781812139E900000EEF092
:10004000A3EFF0900812E0648070030203787BFF56
:100050007A2079291239A57BFF7A20793AAF24AE2C
:1000600023AD22AC219009371213EB1239A57FF88A
:100070007E817DE07C0F126814E524FFE523FE906D
:100080000817EEF0A3EFF0AF24AE23AD22AC217839
:100090001012139E900004EEF0A3EFF07BFF7A2085
:1000A0007954AF24AE23AD22AC219009371213EB63
:1000B0001239A59000027402F0A3E4F09009101226
:1000C00013F700000000E47F3BFEFDFC900910E008
:1000D000F8A3E0F9A3E0FAA3E0FBC312138D4003F9
:1000E000020339900910A3A3E0FEA3E09038137532
:1000F000F005121442EE75F005A42583F583E49310
:10010000FF900812E0FEEF6E6003020317900910E3
:10011000A3A3E0FEA3E090381575F005121442EE9B
:1001200075F005A42583F583E493F9740193FA74BB
:100130000293900937C9F0A3EAF0A3E9F0900914FB
:10014000E0FFA3E090093ACFF0A3EFF0900817E0AA
:10015000FFA3E090093CCFF0A3EFF07BFF7A20797A
:10016000701239A590093774FFF0A37420F0A374BE
:1001700087F0900910A3A3E0FEA3E090381575F076
:1001800005121442EE75F005A42583F583E493F976
:10019000740193FA74029390093AC9F0A3EAF0A3A8
:1001A000E9F0900914E0FFA3E090093DCFF0A3EF40
:1001B000F0900817E0FFA3E090093FCFF0A3EFF025
:1001C0007B017A0879B012399F7FE47E817DE07CE3
:1001D0000F126814AF21EF240AFF74017E00A807F4
:1001E000088005C333CE33CED8F990081AF0EE90CC
:1001F0000819F0900910A3A3E0FEA3E0903814754D
:10020000F005121442EE75F005A42583F583E493FE
:100210001460601470030202C524026003020339F3
:100220009008231213F7400C000890081F1213F7D0
:10023000400C000C90080A1213F7400C00109008B4
:100240000E1213F7400C00189008271213F7400CF9
:10025000001C90081B1213F7400C00549008131256
:1002600013F7400C00409000061213F70000000145
:100270000203399008231213F7400E000890081F5C
:100280001213F7400E000C90080A1213F7400E00EC
:100290001090080E1213F7400E0018900827121342
:1002A000F7400E001C90081B1213F7400E005490EC
:1002B00008131213F7400E00409000061213F700C7
:1002C00000000280749008231213F7400000089089
:1002D000081F1213F74000000C90080A1213F74091
:1002E00000001090080E1213F74000001890082725
:1002F0001213F74000001C90081B1213F740000077
:10030000549008131213F740000040900006121397
:10031000F7000000048022900910E0FCA3E0FDA398
:10032000E0FEA3E02401FFE43EFEE43DFDE43CFCEE
:100330009009101213EB0200C6E47F3BFEFDFC9017
:100340000910E0F8A3E0F9A3E0FAA3E0FBC312135D
:100350008D60030208807BFF7A20798F1239A59087
:10036000093774FFF0A37420F0A374A7F07B017A1F
:100370000879B012399FC32290091674FFF0A37454
:1003800020F0A374BEF0A374FFF0A37420F0A37454
:10039000C6F0A374FFF0A37420F0A374CEF0C228BB
:1003A0007BFF7A2079D61239A57F007E807DE07CA4
:1003B0000F1268147BFF7A2079E59009371213F742
:1003C0000FE08000AF24AE23AD22AC2190093B1298
:1003D00013EB1239A5AF22900000E4F0A3EFF07FF9
:1003E000047E807DE07C0F1268147BFF7A21790AFD
:1003F0009009371213F70FE08004AF24AE23AD222B
:10040000AC2190093B1213EB1239A57F087E807D49
:10041000E07C0F1268147BFF7A21792F9009371244
:1004200013F70FE08008AF24AE23AD22AC21900972
:100430003B1213EB1239A5E524240AFF74017E0058
:10044000A807088005C333CE33CED8F990081AF038
:10045000EE900819F0AF237E00E0FCA3E0FD12113E
:10046000A7900002EEF0A3EFF07F0C7E807DE07C91
:100470000F1268147BFF7A2179579009371213F70E
:100480000FE0800CAF24AE23AD22AC2190093B12CB
:1004900013EB1239A5AE23AF24900817EEF0A3EFAB
:1004A000F0E5215403900004F0E522A3F07F107ED4
:1004B000807DE07C0F1268147BFF7A21797D9009A2
:1004C000371213F70FE08010AF24AE23AD22AC211A
:1004D00090093B1213EB1239A57F147E807DE07CDE
:1004E0000F1268147BFF7A2179A59009371213F750
:1004F0000FE08014AF24AE23AD22AC2190093B1253
:1005000013EB1239A57F047E807DE07C0F12681406
:100510007BFF7A2179D01239A5E521543F14602060
:1005200014603624027054900916E0FBA3E0FAA38D
:10053000E0F91239A578B07C087D01900916803069
:10054000900919E0FBA3E0FAA3E0F91239A578B00D
:100550007C087D01900919801790091CE0FBA3E03D
:10056000FAA3E0F91239A578B07C087D0190091C46
:10057000E0FBA3E0FAA3E0F912171C7BFF7A2179D4
:10058000DFE522543FFF900937E4F0A3EFF0123982
:10059000A5E522543F64167002D228AE23AF247C16
:1005A000037DE81211B9EF2441900937F07BFF7AFF
:1005B0002179E41239A5AE23AF247C037DE8121122
:1005C000B9900937ECF0A3EDF07BFF7A2179E712BF
:1005D00039A57B017A0879B01268FB74B02FF974E1
:1005E000083EFA7B0190093774FFF0A37421F0A351
:1005F00074DFF0E522543FFFA3E4F0A3EFF01239DB
:100600009F7B017A0879B01268FB74B02FF97408E7
:100610003EFA7B0190093774FFF0A37421F0A374B4
:10062000E4F0AE23AF247C037DE81211B9EF24413E
:10063000A3F012399F7B017A0879B01268FB74B07D
:100640002FF974083EFA7B0190093774FFF0A37408
:1006500021F0A374E7F0AE23AF247C037DE81211F0
:10066000B9A3ECF0A3EDF012399F7F0C7E807DE002
:100670007C0F1268147BFF7A2179ECE524FFE523D7
:10068000FE900937EEF0A3EFF01239A57B017A084E
:1006900079B01268FB74B02FF974083EFA7B0190B0
:1006A000093774FFF0A37421F0A374ECF0E524FF84
:1006B000E523FEA3EEF0A3EFF012399F7F087E80C2
:1006C0007DE07C0F1268147F107E807DE07C0F122D
:1006D00068147BFF7A2179E4AF24EF902582939010
:1006E0000937F01239A57B017A0879B01268FB74DA
:1006F000B02FF974083EFA7B0190093774FFF0A31C
:100700007421F0A374E4F0AF24EF90258293900954
:100710003AF012399FE52324B6604124FE603D245F
:10072000FB60392404706C7BFF7A2179E4900937EF
:10073000744DF01239A57B017A0879B01268FB7408
:10074000B02FF974083EFA7B0190093774FFF0A3CB
:100750007421F0A374E4F0A3744D80337BFF7A21FD
:1007600079E49009377478F01239A57B017A087919
:10077000B01268FB74B02FF974083EFA7B0190093F
:100780003774FFF0A37421F0A374E4F0A37478F03D
:1007900012399F7BFF7A2179DFAF22900937E4F08D
:1007A000A3EFF01239A57B017A0879B01268FB74C7
:1007B000B02FF974083EFA7B0190093774FFF0A35B
:1007C0007421F0A374DFF0AF22A3E4F0A3EFF012E2
:1007D000399F7F007E807DE07C0F1268147BFF7A5A
:1007E0002179F0E5222441900937F01239A57B01E7
:1007F0007A0879B01268FB74B02FF974083EFA7B5E
:100800000190093774FFF0A37421F0A374F5F0E5AB
:10081000222441A3F012399F9008231213F74003BA
:10082000000C90081F1213F74003001090080A12E2
:1008300013F74003001490080E1213F7400300183A
:100840009008131213F74003003C90081B1213F793
:10085000400300409008271213F74003001C90004B
:10086000061213F700000003302815900938121300
:10087000F7000200007F687E807D007C401267DB0D
:100880007BFF7A2179F9900812E0FF900937E4F0B4
:10089000A3EFF0900817E0FFA3E0900939CFF0A391
:1008A000EFF0900004E0FFA3E090093BCFF0A3EF4E
:1008B000F0900819E0FFA3E090093DCFF0A3EFF01E
:1008C000900002E0FFA3E090093FCFF0A3EFF0908B
:1008D0000000E0FFA3E0900941CFF0A3EFF0123950
:1008E000A57BFF7A227963900823E0FCA3E0FDA3B7
:1008F000E0FEA3E0FF9009371213EB90081FE0FC25
:10090000A3E0FDA3E0FEA3E0FF90093B1213EB90F0
:10091000080AE0FCA3E0FDA3E0FEA3E0FF90093F8E
:100920001213EB1239A57BFF7A2279A790080EE00B
:10093000FCA3E0FDA3E0FEA3E0FF9009371213EB58
:10094000900827E0FCA3E0FDA3E0FEA3E0FF9009F0
:100950003B1213EB900813E0FCA3E0FDA3E0FEA321
:10096000E0FF90093F1213EB90081BE0FCA3E0FDB1
:10097000A3E0FEA3E0FF9009431213EB1239A5D3C5
:10098000224108AB006800000A200033B820004173
:1009900085200041892000418B2000418D200041AD
:1009A0008F200041910000000000000000000000C6
:1009B00000000000002000419320004195200041EC
:1009C0008920004197200041992000419B2000414F
:1009D0009B2000419B2000419B2000419B20004127
:1009E0009B2000419B2000419B2000419B20004117
:1009F0009B2000419B2000419B2000419B20004107
:100A00009B2000419B2000419B2000419B200041F6
:100A10009B2000419B2000419B2000419B200041E6
:100A20009B2000419B2000419B2000419B200041D6
:100A30009B2000419B2000419B2000419B200041C6
:100A40009B2000419B2000419B2000419B200041B6
:100A50009B2000419B2000419B2000419B200041A6
:100A60009B2000419B00000000F802F000F83EF0DF
:100A700000C830A00C1824380846A2182D46AB1E1A
:100A800067465D4654D10142ACF830F0003E0F4657
:100A90007E46B6CC0F423326011AFBD00046AB4649
:100AA000A2471843330000010C0000015CD3023A56
:100AB00010C178C8780752D8FAC830D301D501C11F
:100AC00030600C68040000477024002300260025D5
:100AD00000D3013A10D8FBC178D3000752D500C12A
:100AE000304770600BBD1FB51FBD10B510F82DF05D
:100AF00000F7FF4611F7FEFFF7F000F8E3B403F844
:100B000045FFF2F7FFF000BC030000F84B47004838
:100B100008E7FEE7FEE7FEE7FEE7FEE7FEE7FEE7A3
:100B2000FEE7FEE7FE490448034B054A0400004780
:100B300070200040E1200023B8200033B820002FAF
:100B4000B820002FB84770477046754770F824F0FA
:100B500000000546AE4653466900C008C0B01846BE
:100B600085F7FFB520BC60FFDF0849270026004657
:100B7000B6C5C0C5C0C5C0C5C0C5C0C5C0C5C0C557
:100B8000C000493D404770468D4604B51046C046FA
:100B9000C0F7FF4620BD10FFB44770480020002377
:100BA0005820184901E7FEBEAB00020026000047AE
:100BB000702000427820002000000000302000411A
:100BC00024200042A820002040000002FC20004118
:100BD00024200045A42000233C0000001C200041EC
:100BE0002420004278200000000000200020004166
:100BF00040200045C0200023580000106020004124
:100C000040000000000000000000000000000000A4
:100C1000010000001300000000000000220000009E
:100C200022000000000000000000000000000000A2
:100C3000002001499C489C60081C4968014A9B604F
:100C4000011E806810D2F6280644790001184979FF
:100C5000095E02448FFEAB91762111489528016808
:100C6000002802D0072803D0152804D0222112D052
:100C7000304891E04960034B8F60431D1B60831D2A
:100C80001B60C34B8E61031D1B61434B8D61834B06
:100C90008D4889E02D60034B8C60431D1B60831DD4
:100CA0001B60C34B8A61031D1B61434B89E01D4BD5
:100CB000894B8948811D1B60031D1B60431D1B6000
:100CC000834B8660C31D1B61834B856143E00E61CE
:100CD000034B8448791D1B60031D1B60434B8260DE
:100CE000831D1B60C34B8161034B8161434872616B
:100CF0008369844B80680460232301682560254351
:100D00001D23006940487C600320016001E7926078
:100D1000104D792000602843C068204C78497868DD
:100D200023199B680ED93F42831C5B68036028D05F
:100D3000016823E0B51D00680E4283199BE0AED820
:100D4000F46800486E688B495C6848601860042449
:100D5000016003230220124D686909602820004BBE
:100D60006907F6680E1C40D004D3F94298E7626028
:100D700014602820114950E7FA694B4863484C60D9
:100D800018200368000200684B4D5B601860282043
:100D9000124B5C6909680C2000D00307E442981CE0
:100DA00040E07CD3F9602820114858E07928216878
:100DB000004E52D12D683024004F51683118896897
:100DC0003AD921428135F525FF68914A3B68536045
:100DD000086019210100A3494E68D358C9685360BF
:100DE00019601921082100691207DB68136813D004
:100DF00005D00207DB42A91C896831D3F61D0068C3
:100E00003A1C641889D8DF42812122484048416059
:100E100001282168004E40D1AB683024004F3F6864
:100E20003218516839D923428135F525FF68914A36
:100E300022685360086019210100A3493968D3581A
:100E4000C9685360196019210821006912E000681F
:100E50001307DBE0116813D005D00207DB42A91CA1
:100E6000896831DBF41D00683A1C641889D8DD42BA
:100E70008149282022492BE6DE6008200068204CAA
:100E80001F4D1F6823199B682ED9084283680EC81E
:100E900008600B199B682B6826428318F32001D841
:100EA000F6E6C86010200020082000200020002066
:100EB0000C20002004400C00082000233C400C00C3
:100EC00018400C0054400C0040400E0008400E003A
:100ED00018400E0054400E00404003000C40030038
:100EE0003C4003001C400000084000001840000087
:100EF000544000004000001B712000201020002002
:100F000020200020280FFFFFFF0000631A20002090
:100F100018200000002000201C2000202420002099
:100F20002C2000100020002014FE82F7FF0000009B
:100F300000000000000000000000000000000000B1
:100F400000000000000000000000000000000000A1
:100F50000000000000000000000000000000000091
:100F60000000000000000000000000000000000081
:1011800000000000000000000041095C0100BB01FC
:101190000689828A83E0225002E722BBFE02E32214
:1011A00089828A83E49322EF8DF0A4A8F0CF8CF09B
:1011B000A428CE8DF0A42EFE22BC000BBE0029EF89
:1011C0008DF084FFADF022E4CCF875F008EF2FFF2E
:1011D000EE33FEEC33FCEE9DEC984005FCEE9DFEFC
:1011E0000FD5F0E9E4CEFD22EDF8F5F0EE8420D243
:1011F0001CFEADF075F008EF2FFFED33FD400798B2
:101200005006D5F0F222C398FD0FD5F0EA22C2D5E0
:10121000EC30E709B2D5E4C39DFDE49CFCEE30E779
:1012200015B2D5E4C39FFFE49EFE1211B9C3E49D3D
:10123000FDE49CFC80031211B930D507C3E49FFF85
:10124000E49EFE22C5F0F8A3E028F0C5F0F8E582A0
:10125000158270021583E038F022A3F8E0C5F0256E
:10126000F0F0E582158270021583E0C838F0E822BC
:10127000E88FF0A4CC8BF0A42CFCE98EF0A42CFC1D
:101280008AF0EDA42CFCEA8EF0A4CDA8F08BF0A49B
:101290002DCC3825F0FDE98FF0A42CCD35F0FCEBFA
:1012A0008EF0A4FEA9F0EB8FF0A4CFC5F02ECD39BF
:1012B000FEE43CFCEAA42DCE35F0FDE43CFC2275B6
:1012C000F008758200EF2FFFEE33FECD33CDCC3327
:1012D000CCC58233C5829BED9AEC99E58298400C8F
:1012E000F582EE9BFEED9AFDEC99FC0FD5F0D6E46D
:1012F000CEFBE4CDFAE4CCF9A88222B800C1B90053
:1013000059BA002DEC8BF084CFCECDFCE5F0CBF9B3
:101310007818EF2FFFEE33FEED33FDEC33FCEB33AB
:10132000FB10D703994004EB99FB0FD8E5E4F9FAD9
:10133000227818EF2FFFEE33FEED33FDEC33FCC9BE
:1013400033C910D7059BE99A4007EC9BFCE99AF951
:101350000FD8E0E4C9FAE4CCFB2275F010EF2FFFC0
:10136000EE33FEED33FDCC33CCC833C810D7079B2A
:10137000EC9AE899400AED9BFDEC9AFCE899F80F8D
:10138000D5F0DAE4CDFBE4CCFAE4C8F922EB9FF522
:10139000F0EA9E42F0E99D42F0E89C45F022E860C8
:1013A0000FECC313FCED13FDEE13FEEF13FFD8F1AA
:1013B00022BB010789828A830217D35005E9F8020C
:1013C00017C7BBFE05E9F80217DF89828A83021777
:1013D000EBBB010789828A830213EB5005E9F8020F
:1013E00017FBBBFE05E9F802180722ECF0A3EDF0AD
:1013F000A3EEF0A3EFF022A8828583F0D083D08201
:1014000012140E12140E12140E12140EE473E4933E
:10141000A3C583C5F0C583C8C582C8F0A3C583C56D
:10142000F0C583C8C582C822BB010789828A8302AE
:1014300013F75005E9F8021813BBFE05E9F8021886
:101440002C22A42582F582E5F03583F58322D08312
:10145000D082E4937012740193700DA3A393F87477
:101460000193F5828883E4737402936C70127403A1
:10147000936D700C7404936E70067405936F60DD49
:10148000A3A3A3A3A3A380CAEC8EF0A4CCC5F0CCE5
:10149000CDF8EFA4CEC5F02DFDE43CFCE8A42EC8A9
:1014A000C5F03DFDE43CFCEFA4FFE5F028FEE43D83
:1014B000FDE43CFC22E3F5F009E208B5F06D606B59
:1014C00080F3E3F5F009E608B5F060605E80F3872D
:1014D000F009E608B5F054605280F487F009E2089C
:1014E000B5F048604680F488828C8387F009E0A3D9
:1014F000B5F038603680F488828C8387F009E493F5
:10150000A3B5F027602580F388828C83E3F5F0098A
:10151000E0A3B5F016601480F388828C83E3F5F0C5
:1015200009E493A3B5F004600280F20215E080851F
:1015300080E7808E80D2803C8015806C807E809B8E
:1015400080B5808B80A1804F8070803A0215EC8935
:10155000828A83ECFAE493F5F0A3C8C582C8CCC5AF
:1015600083CCE493A3C8C582C8CCC583CCB5F07046
:10157000606E80E189828A83E493F5F0A3E208B586
:10158000F05E605C80F289828A83E0F5F0A3E60871
:10159000B5F04D604B80F389828A83E0F5F0A3E2D9
:1015A00008B5F03C603A80F389828A83E493F5F0D1
:1015B000A3E608B5F02A602880F2805389828A83E6
:1015C000ECFAE493F5F0A3C8C582C8CCC583CCE09F
:1015D000A3C8C582C8CCC583CCB5F004600280E244
:1015E0007FFFB5F0020F2240027F012289828A83A9
:1015F000ECFAE0F5F0A3C8C582C8CCC583CCE0A363
:10160000C8C582C8CCC583CCB5F0D560D380E3898A
:10161000828A83ECFAE0F5F0A3C8C582C8CCC58302
:10162000CCE493A3C8C582C8CCC583CCB5F0B16067
:10163000AF80E288F0ED2402B4040050A3F582EB01
:101640002402B404005099232345822390152E735D
:10165000E709F60870FA8046E709F20870FA803E5A
:1016600088828C83E709F0A370FA807EE309F6088C
:1016700070FA8076E309F20870FA806E88828C83B3
:10168000E309F0A370FA806289828A83E0A3F608F6
:1016900070FA805689828A83E0A3F20870FA804A41
:1016A00080D280FA80C680D4806580F2803180103C
:1016B00080A680EA809A80A880DA80E280CA8031A1
:1016C00089828A83ECFAE493A3C8C582C8CCC58317
:1016D000CCF0A3C8C582C8CCC583CC70E9800D8985
:1016E000828A83E493A3F60870F9ECFAA9F0EDFB83
:1016F0002289828A83ECFAE0A3C8C582C8CCC5835C
:10170000CCF0A3C8C582C8CCC583CC70EA80DD8983
:10171000828A83E493A3F20870F980CE88F0ED24E6
:1017200002B4040050C4F582EB2402B4040050BAA1
:1017300023234582239016A073BB010CE58229F573
:1017400082E5833AF583E0225006E92582F8E62215
:10175000BBFE06E92582F8E222E58229F582E583CF
:101760003AF583E49322BB010689828A83F02250F2
:1017700002F722BBFE01F322F8BB010DE58229F539
:1017800082E5833AF583E8F0225006E92582C8F61F
:1017900022BBFE05E92582C8F222BB010A89828AA2
:1017A00083F0E5F0A3F0225006F709A7F01922BB59
:1017B000FE06F3E5F009F31922C3E49FFFE49EFE61
:1017C000E49DFDE49CFC22E6FC08E6FD08E6FE083C
:1017D000E6FF22E0FCA3E0FDA3E0FEA3E0FF22E29F
:1017E000FC08E2FD08E2FE08E2FF22E493FC74013B
:1017F00093FD740293FE740393FF22ECF608EDF65A
:1018000008EEF608EFF622ECF208EDF208EEF20828
:10181000EFF222D083D082E493F608740193F608A5
:10182000740293F608740393F6740473D083D08221
:10183000E493F208740193F208740293F2087403BB
:1018400093F2740473E0FBA3E0FAA3E0F922F8E05A
:10185000FBA3A3E0F925F0F0E58215827002158361
:10186000E0FA38F022F8E0FBA3A3E025F0F9F0E578
:1018700082158270021583E038FAF022EBF0A3EAB9
:10188000F0A3E9F022D083D082F8E49370127401BF
:1018900093700DA3A393F8740193F5828883E47386
:1018A0007402936860EFA3A3A380DF90092412134E
:1018B000EB9009301213F70000000090095C7401EE
:1018C000F07BFF7A48790E1239A5202903021C3AD1
:1018D0007524F07523ED7522007521E0E4FD7F8B02
:1018E000125D04E4752412F523F522752123FD7F92
:1018F000A3125D0490095CE064016002C3227F18BA
:101900007E207D007C20126814E47F22FEFDFCAB6B
:1019100024AA23A922A821C312138D6003021A66E8
:101920009009301213F700000000E4F524F523F5C8
:1019300022752120FD7F8B125D0490092C1213F774
:1019400000000000900928E0FCA3E0FDA3E0FEA356
:10195000E0FFA3E0F8A3E0F9A3E0FAA3E0FBC312E1
:10196000138D5072E4F5A3F5A3E5A120E0FB9008E8
:10197000AFE5A3F0E4F5A3E5A120E0FB9008AEE518
:10198000A3F0E4F5A3E5A120E0FB9008ADE5A3F00A
:10199000E5A120E0FB9008ACE5A3F0E0FCA3E0FDAE
:1019A000A3E0FEA3E0F5248E238D228C21E4FD7FAD
:1019B000BB125D0490092CE0FCA3E0FDA3E0FEA3B4
:1019C000E02404FFE43EFEE43DFDE43CFC90092CF1
:1019D0001213EB021944900924E0FCA3E0FDA3E0FC
:1019E000FEA3E0FF9009381213EB7F207E207D00DC
:1019F0007C201267DB900928E0FCA3E0FDA3E0FE59
:101A0000A3E0FF9009381213EB7F287E207D007C35
:101A1000201267DB9009381213F7000000217F18AD
:101A20007E207D007C201267DB9009381213F700BE
:101A30000000067F0C7E207D007C201267DB2028C2
:101A400003021C137F187E207D007C20126814E4A2
:101A50007F21FEFDFCAB24AA23A922A821C31213D7
:101A60008D60E1021C137F1C7E207D007C201268AB
:101A700014E47F22FEFDFCAB24AA23A922A821C3E3
:101A800012138D6003021BCD9009301213F7000072
:101A90000000752400752310752200752120E4FDD7
:101AA0007F8B125D0490092C1213F7000000009048
:101AB0000928E0FCA3E0FDA3E0FEA3E0FFA3E0F81B
:101AC000A3E0F9A3E0FAA3E0FBC312138D5072E484
:101AD000F5A3F5A3E5A120E0FB9008AFE5A3F0E4B2
:101AE000F5A3E5A120E0FB9008AEE5A3F0E4F5A3A3
:101AF000E5A120E0FB9008ADE5A3F0E5A120E0FB27
:101B00009008ACE5A3F0E0FCA3E0FDA3E0FEA3E0B9
:101B1000F5248E238D228C21E4FD7FBB125D049081
:101B2000092CE0FCA3E0FDA3E0FEA3E02404FFE415
:101B30003EFEE43DFDE43CFC90092C1213EB021A3E
:101B4000AF900924E0FCA3E0FDA3E0FEA3E0FF903A
:101B500009381213EB7F247E207D007C201267DB86
:101B6000900928E0FCA3E0FDA3E0FEA3E0FF9009BC
:101B7000381213EB7F2C7E207D007C201267DB90D7
:101B800009381213F7000000217F1C7E207D007CA5
:101B9000201267DB9009381213F7000000067F0C53
:101BA0007E207D007C201267DB3028677F1C7E2032
:101BB0007D007C20126814E47F21FEFDFCAB24AA8A
:101BC00023A922A821C312138D60E180467BFF7AEE
:101BD0004979961239A5900930E0FCA3E0FDA3E015
:101BE000FEA3E02401FFE43EFEE43DFDE43CFC9066
:101BF00009301213EBE47F64FEFDFC900930E0F83D
:101C0000A3E0F9A3E0FAA3E0FBD312138D50030283
:101C100018F4227524F07523ED7522007521E0E497
:101C2000FD7F8B125D04E4752402F523F5227521F6
:101C300023FD7FA3125D04021F5790095CE064013D
:101C40006002C3227F187E207D007C20126814E48D
:101C50007F22FEFDFCAB24AA23A922A821C31213D4
:101C60008D6003021DC990092C1213F700000000BB
:101C7000900928E0FCA3E0FDA3E0FEA3E0FFA3E0C1
:101C8000F8A3E0F9A3E0FAA3E0FBC312138D40032D
:101C9000021D39E4F5A3F5A3E5A120E0FB9008AF10
:101CA000E5A3F0E4F5A3E5A120E0FB9008AEE5A3F1
:101CB000F0E4F5A3E5A120E0FB9008ADE5A3F0E595
:101CC000A120E0FB9008ACE5A3F0E0FCA3E0FDA3BD
:101CD000E0FEA3E0F5248E238D228C2190092CE0D8
:101CE000FCA3E0FDA3E0FEA3E02400FFE43EFEE44D
:101CF0003DFDEC3420FCC004C005C006C007AF2485
:101D0000AE23AD22AC219009381213EBD007D006D8
:101D1000D005D0041267DB90092CE0FCA3E0FDA302
:101D2000E0FEA3E02404FFE43EFEE43DFDE43CFCD1
:101D300090092C1213EB021C70900924E0FCA3E024
:101D4000FDA3E0FEA3E0FF9009381213EB7F207E95
:101D5000207D007C201267DB900928E0FCA3E0FDD9
:101D6000A3E0FEA3E0FF9009381213EB7F287E204A
:101D70007D007C201267DB9009381213F700000009
:101D8000217F187E207D007C201267DB90093812AD
:101D900013F7000000067F0C7E207D007C20126778
:101DA000DB202803021F577F187E207D007C201235
:101DB0006814E47F21FEFDFCAB24AA23A922A821FC
:101DC000C312138D60E1021F577F1C7E207D007CB3
:101DD00020126814E47F22FEFDFCAB24AA23A92272
:101DE000A821C312138D6003021F4B90092C1213FC
:101DF000F700000000900928E0FCA3E0FDA3E0FE4E
:101E0000A3E0FFA3E0F8A3E0F9A3E0FAA3E0FBC39B
:101E100012138D4003021EBFE4F5A3F5A3E5A12034
:101E2000E0FB9008AFE5A3F0E4F5A3E5A120E0FB1B
:101E30009008AEE5A3F0E4F5A3E5A120E0FB90084F
:101E4000ADE5A3F0E5A120E0FB9008ACE5A3F0E050
:101E5000FCA3E0FDA3E0FEA3E0F5248E238D228CFD
:101E60002190092CE0FCA3E0FDA3E0FEA3E0240008
:101E7000FFEE3410FEE43DFDEC3420FCC004C00550
:101E8000C006C007AF24AE23AD22AC2190093812A2
:101E900013EBD007D006D005D0041267DB90092CD5
:101EA000E0FCA3E0FDA3E0FEA3E02404FFE43EFE8B
:101EB000E43DFDE43CFC90092C1213EB021DF5906F
:101EC0000924E0FCA3E0FDA3E0FEA3E0FF900938B5
:101ED0001213EB7F247E207D007C201267DB9009AB
:101EE00028E0FCA3E0FDA3E0FEA3E0FF9009381288
:101EF00013EB7F2C7E207D007C201267DB9009385D
:101F00001213F7000000217F1C7E207D007C201230
:101F100067DB9009381213F7000000067F0C7E2063
:101F20007D007C201267DB30282D7F1C7E207D0009
:101F30007C20126814E47F21FEFDFCAB24AA23A9B7
:101F400022A821C312138D60E1800C7BFF7A4979AE
:101F5000961239A5021C3AD3224C6F6164466C611B
:101F6000736852616D002066696E69736865640A02
:101F700000466C61736852616D20636F756E7465A5
:101F800072205430203D202530386C782C200054AD
:101F900031203D202530386C782C20005432203DF3
:101FA000202530386C782C20006973206E6F7420E7
:101FB00072756E6E696E670A0069732072756E6E57
:101FC000696E670A004572617365206368697020F5
:101FD0006661696C65640A004572617365206368B7
:101FE00069702066696E69736865640A004572618C
:101FF000736520636869702074696D656F75740A14
:1020000000457261736520706167652066696E695D
:10201000736865640A004572617365207061676565
:10202000206661696C65640A005365726965732096
:10203000302F3120636869700A0053302F315F50B0
:102040004152545F494E464F203D2030782530386C
:102050006C780A0053302F315F4D454D4F52595F18
:10206000494E464F203D2030782530386C780A00A4
:1020700050617274206E756D626572203D2025730B
:1020800025644625640A00257325644625640047B7
:1020900065742064657669636520696E666F206685
:1020A00061696C65640A00476574206465766963DC
:1020B0006520696E666F206661696C6564004546DF
:1020C00052333246470045465233324D470045466B
:1020D0005233324247005365726965732032206380
:1020E0006869700A0053325F444556494E464F5F57
:1020F000494E464F202830782530386C7829203DCD
:102100002030782530386C780A0053325F444556C9
:10211000494E464F5F504152542028307825303880
:102120006C7829203D2030782530386C780A0053AF
:10213000325F444556494E464F5F4D454D494E46E8
:102140004F202830782530386C7829203D20307891
:102150002530386C780A0053325F444556494E4664
:102160004F5F4D53495A45202830782530386C78D8
:1021700029203D2030782530386C780A0053325FB2
:10218000444556494E464F5F504B47494E464F20B7
:102190002830782530386C7829203D20307825305B
:1021A000386C780A0053325F444556494E464F5FBB
:1021B000435553544F4D494E464F202830782530D3
:1021C000386C7829203D2030782530386C780A002A
:1021D00050617274206E756D626572203D2000251D
:1021E00030326400256300253033640046256400E6
:1021F0002D25630A002D25630046616D696C7920E9
:102200003D2025642C20466C617368203D202564A8
:102210004B2042797465732C2052414D203D20257E
:10222000644B2042797465732C2050616765536953
:102230007A65203D2025642042797465732C2055F1
:10224000736572203D2025642042797465732C20CB
:1022500050726F64756374696F6E4944203D202528
:10226000640A006D736357726974654374726C20FD
:102270003D2030782530386C782C206D7363577290
:10228000697465436D6420203D2030782530386CBA
:10229000782C206D73634164647262203D20307835
:1022A0002530386C780A00202020206D7363576435
:1022B000617461203D2030782530386C782C206D99
:1022C0007363537461747573526567203D20307871
:1022D0002530386C782C206D73634C6F636B202035
:1022E0003D2030782530386C782C206D73634D613B
:1022F00073734C6F636B203D2030782530386C78D9
:102300000A00536574204D534320636F6E74726FDF
:102310006C20616464722854256C78292000307820
:102320002530386C780A004572726F720A00204EB0
:102330006F6E650A00457261736520706167652084
:1023400061742030782530386C78200066696E69B9
:10235000736865640A006572726F720A0045726183
:10236000736520636869702000436865636B7375EB
:102370006D20666C6173682041646472203D20307A
:10238000782530386C782C2030782530386C7820DF
:1023900042797465732C002030782530386C780AC7
:1023A00000426C616E6B636865636B2041646472AC
:1023B000203D2030782530386C782C20307825303E
:1023C000386C782042797465730A004661696C65DF
:1023D000640A004E4F5420424C414E4B2061742001
:1023E00030782530386C782C20726561643A200092
:1023F000424C414E4B0A00526561642066726F6D1B
:102400002030782530386C7820666F72203078253F
:1024100030386C782042797465733A0A0025303878
:102420006C7820000A006265627567636F756E7470
:102430006572202020202020203D202530386C7817
:10244000200A00666C6173686374726C74797065DD
:102450002020202020203D202530386C78200A00C4
:10246000666C6173686D61696E5F6E756D202020AA
:102470002020203D202530386C78200A00636F6DC5
:102480006D616E642020202020202020202020202C
:102490003D202530386C78200A00636D64726573C6
:1024A000756C74202020202020202020203D202515
:1024B00030386C78200A00636865636B73756D2033
:1024C000202020202020202020203D202530386C76
:1024D00078200A00627566666572315F72647920E1
:1024E000202020202020203D202530386C78200A14
:1024F00000627566666572325F7264792020202002
:10250000202020203D202530386C78200A0062757C
:1025100066666572315F73746172745F6164647260
:10252000203D202530386C78200A0062756666658B
:1025300072325F73746172745F61646472203D20F3
:102540002530386C78200A00627566666572315FE6
:1025500073697A65202020202020203D20253038F6
:102560006C78200A00627566666572325F73697AFC
:1025700065202020202020203D202530386C782028
:102580000A00474949205357443A20434C4B203DC9
:102590002050322E313B20525354203D2050322EB9
:1025A000323B20535744494F203D2050322E330AAE
:1025B000005350493A2053434B203D2050302E3693
:1025C0003B204D49534F203D2050302E373B204D6E
:1025D0004F5349203D2050312E303B204353203D66
:1025E0002050312E310A004C43443A204353203DC1
:1025F0002050312E342C205253203D2050312E3289
:102600002C205245534554203D2050312E330A0092
:10261000436F6D6D616E64206C6973743A0A007269
:102620006573657420202020202020202020202079
:102630002020202020203A20686172647761726532
:1026400020726573657420636869700A00636F6E39
:102650006E65637420202020202020202020202050
:10266000202020203A20636F6E6E65637420616EB7
:1026700064207072657061726520666C6173686C4D
:102680006F616465720A0072656164203078302081
:1026900030783130202020202020202020203A2097
:1026A00072656164206D656D6F72792C2061646460
:1026B000726573732073697A650A0077726974654D
:1026C0002030783020307831302020202020202009
:1026D00020203A207772697465206120776F7264D8
:1026E000203078313020746F20616464722030783B
:1026F000300A0065726173657061676520307831FA
:10270000302020202020202020203A206572617374
:1027100065206120666C61736820706167650A00DE
:10272000636D6465726173657061676520307831CF
:10273000302020202020203A2065726173652061BE
:1027400020666C61736820706167650A006572615C
:1027500073656368697020202020202020202020BD
:10276000202020203A20657261736520616C6C2006
:102770006D61696E20666C617368206F66206120F0
:10278000636869700A00636D64657261736563688C
:10279000697020202020202020202020203A206541
:1027A0007261736520616C6C206D61696E20666C6E
:1027B000617368206F66206120636869700A006237
:1027C0006C616E6B203078302030783130202020E2
:1027D0002020202020203A20626C616E6B206368EC
:1027E00065636B2C20616464726573732073697A0E
:1027F000650A00626C616E6B63686970202020203E
:10280000202020202020202020203A20626C616E91
:102810006B20636865636B206120636869700A00E0
:10282000636865636B73756D203078302030783164
:10283000302020202020203A2067657420636865BE
:10284000636B73756D2C20616464726573732073A0
:10285000697A650A00636865636B73756D6368699F
:102860007020202020202020202020203A20676572
:102870007420636865636B73756D206F66206120DB
:10288000636869700A0073706969642020202020E1
:10289000202020202020202020202020203A2067D7
:1028A0006574206465766963652049440A00737025
:1028B000696572617365636869702020202020203B
:1028C00020202020203A206572617365206E6F728F
:1028D00020636869700A007370696572617365735B
:1028E0006563746F722030783130303020203A20A8
:1028F0006572617365206120736563746F720A008D
:1029000073706965726173657061676520307831D5
:10291000303030202020203A2065726173652061BC
:1029200020736563746F720A0073706977726974DB
:102930006520307830203078313020202020202051
:102940003A207772697465206120776F7264203055
:1029500078313020746F2061646472203078300ADE
:10296000007370697265616420202020202020207F
:1029700020202020202020203A2072656164206DD4
:10298000656D6F72792C2061646472657373207356
:10299000697A650A00737069626C616E6B20202031
:1029A0002020202020202020202020203A20626C7F
:1029B000616E6B20636865636B2C20616464726573
:1029C00073732073697A650A00737069626C616E53
:1029D0006B63686970202020202020202020202088
:1029E0003A20626C616E6B20636865636B206120C6
:1029F000636869700A00737069636865636B7375F7
:102A00006D2030783020307831302020203A206717
:102A1000657420636865636B73756D2C20616464F5
:102A2000726573732073697A650A007370696368ED
:102A300065636B73756D63686970202020202020AA
:102A400020203A20626C616E6B20636865636B20A6
:102A50006120636869700A00646F776E6C6F6164EF
:102A60002066696C65203078302030783130203A2B
:102A700020646F776E6C6F616420612062696E61A3
:102A8000727920746F20666C6173682C20616464B5
:102A9000726573732073697A650A00636F707920B9
:102AA000307830203078313020307832302020209B
:102AB00020203A20636F70792066726F6D2053502A
:102AC000492030783020746F20666C617368203044
:102AD0007831302C2073697A6520307832300A00E2
:102AE000636D643E006175746F0025732030782536
:102AF0006C78203078256C780068656C7000680010
:102B00003F0090090C1213F70000000078F87C08D1
:102B10007D017BFF7A4D79C0121633EF700BC2A294
:102B20007F01FE12689BD2A22278F87C087D017B8F
:102B3000FF7A4D79C6121633EF70030269CB78F82D
:102B40007C087D017BFF7A4D79CD121633EF60034F
:102B5000022C0290091374FFF0A3744DF0A374D2F9
:102B6000F0A37401F0A37408F0A374F8F0A3740147
:102B7000F0A37408F0A374ECF0A37401F0A374083C
:102B8000F0A374F0F0A37401F0A37408F0A374F43C
:102B9000F07B017A0879B0123D28EE3395E0FDFC18
:102BA0009009071213EBE47F04FEFDFC900907E097
:102BB000F8A3E0F9A3E0FAA3E0FBC312138D6009C8
:102BC0007BFF7A4D79E7022CAC9008F0E0FCA3E0A3
:102BD000FDA3E0FEA3E0FF9009141213EB9008F4AC
:102BE000E0FCA3E0FDA3E0FEA3E0FF9009181213B0
:102BF000EB9008ECE0FCA3E0FDA3E0FEA3E0FF0205
:102C0000305A78F87C087D017BFF7A4E792C1216B9
:102C100033EF7006123FC102000378F87C087D0193
:102C20007BFF7A4E7931121633EF7033123FC112A7
:102C30000003400302305DD22812671C1266601246
:102C40005FB8C22812671C1262D8500B1256FF7B65
:102C5000FF7A4E793980557BFF7A4E7948804D78DE
:102C6000F87C087D017BFF7A4E795B121633EF709A
:102C70000302000378F87C087D017BFF7A4E7966B9
:102C8000121633EF7029D22812671C126660125F89
:102C9000B8C22812671C1262D8500B1256FF7BFF75
:102CA0007A4E793980067BFF7A4E79480239A578C9
:102CB000F87C087D017BFF7A4E796D121633EF7038
:102CC000030250F578F87C087D017BFF7A4E79731A
:102CD000121633EF705F7F01FEFDFC900907E0F8EC
:102CE000A3E0F9A3E0FAA3E0FBD312138D50030293
:102CF000305DE47F02FEFDFC900907E0F8A3A3A38A
:102D0000E012138D700A9008F01213F700000020F3
:102D10009008F0E0FCA3E0FDA3E0FEA3E0FF900933
:102D2000141213EB9008ECE0FCA3E0FDA3E0FEA37B
:102D3000E0FF02609D78F87C087D017BFF7A4E7988
:102D400078121633EF70727F03FEFDFC900907E0E6
:102D5000F8A3E0F9A3E0FAA3E0FBC312138D60032C
:102D600002305D7BFF7A4E797E9008ECE0FCA3E0B8
:102D7000FDA3E0FEA3E0FF9009371213EB9008F0EB
:102D8000E0FCA3E0FDA3E0FEA3E0FF90093B1213EB
:102D9000EB1239A59008F0E0FCA3E0FDA3E0FEA350
:102DA000E0FF9009141213EB9008ECE0FCA3E0FDA7
:102DB000A3E0FEA3E0FF0255F478F87C087D017BD8
:102DC000FF7A4E79A2121633EF70727F03FEFDFC7C
:102DD000900907E0F8A3E0F9A3E0FAA3E0FBC3122F
:102DE000138D600302305D7BFF7A4E79AB9008EC67
:102DF000E0FCA3E0FDA3E0FEA3E0FF90093712137F
:102E0000EB9008F0E0FCA3E0FDA3E0FEA3E0FF9060
:102E1000093B1213EB1239A59008F0E0FCA3E0FD8A
:102E2000A3E0FEA3E0FF9009381213EB9008ECE05A
:102E3000FCA3E0FDA3E0FEA3E0FF0267DB78F87CE3
:102E4000087D017BFF7A4E79CC121633EF700302B6
:102E50005A0878F87C087D017BFF7A4E79D61216E5
:102E600033EF700302622A78F87C087D017BFF7AD9
:102E70004E79E3121633EF70119008ECE0FCA3E0FA
:102E8000FDA3E0FEA3E0FF025B0378F87C087D0170
:102E90007BFF7A4E79ED121633EF70119008ECE05B
:102EA000FCA3E0FDA3E0FEA3E0FF025ECF78F87C88
:102EB000087D017BFF7A4E79FA121633EF70249069
:102EC00008F0E0FCA3E0FDA3E0FEA3E0FF900914FE
:102ED0001213EB9008ECE0FCA3E0FDA3E0FEA3E0FE
:102EE000FF802F78F87C087D017BFF7A4F790012F4
:102EF0001633EF7020900817E0FEA3E0FF7C047DFE
:102F0000001214889009141213EB7F007E007D00DC
:102F10007C000253BD78F87C087D017BFF7A4F79F5
:102F20000A121633EF70329008F0E0FCA3E0FDA324
:102F3000E0FEA3E0FF9009281213EB90092C740126
:102F4000F0A37408F0A374F4F09008ECE0FCA3E0A4
:102F5000FDA3E0FEA3E0FF803D78F87C087D017BC7
:102F6000FF7A4F7913121633EF702E900817E0FE98
:102F7000A3E0FF7C047D001214889009281213EB53
:102F800090092C7401F0A37408F0A374F4F07F008E
:102F90007E007D007C0002580778F87C087D017B6C
:102FA000FF7A4F7920121633EF600302305DC2952D
:102FB0007BFF7A4F7925FDFF1269B1123FC1B295AF
:102FC0001200034002805B7B017A0879B0E4FDFFC8
:102FD0001269B1B2957A4F792D1269AC125A08B2C2
:102FE00095D22812671C126660B295125FB8B2952E
:102FF000C22812671C1262D850151256FF7BFF7A46
:103000004E79391239A57A4F79331269AC80187B21
:10301000FF7A4F7941E4FDFF1269B17A4E79481287
:1030200039A5D295C296227BFF7A4F7953E4FDFFF2
:103030001269B19009141213F700000000900817EC
:10304000E0FEA3E0FF7C047D0012148890091812B2
:1030500013EB7F007E007D007C0012428C229009E1
:103060000C1213EB9009141213F7000000009009E2
:10307000181213F70000000090091C1213F700004B
:103080000000E4900924F0A3F0C29530980512697D
:10309000A280F87BFF7A4879FD1239A520984BE48D
:1030A0007F307E75FDFC900914E0F8A3E0F9A3E001
:1030B000FAA3E0FBD312138D400F9009141213F7FB
:1030C000000000007F43126870900914E0FCA3E048
:1030D000FDA3E0FEA3E02401FFE43EFEE43DFDE4A9
:1030E0003CFC9009141213EB80B2B29590091412B3
:1030F00013F70000000020984BE47F307E75FDFC44
:10310000900914E0F8A3E0F9A3E0FAA3E0FBD312DE
:10311000138D400FD295C296900924E4F0A304F0D9
:1031200002358E900914E0FCA3E0FDA3E0FEA3E0CD
:103130002401FFE43EFEE43DFDE43CFC9009141252
:1031400013EB80B21269A2EF3395E0FE900920F0F4
:10315000A3EFF0EE7032EF24FC6019240270297F97
:1031600018126870D295C296900924E4F0A37402F4
:10317000F002358E7F06126870D295C2947BFF7A7A
:103180004979161239A5D3229009141213F70000B9
:103190000000209848E47F307E75FDFC900914E023
:1031A000F8A3E0F9A3E0FAA3E0FBD312138D400CDF
:1031B000900924E4F0A37403F002358E900914E022
:1031C000FCA3E0FDA3E0FEA3E02401FFE43EFEE457
:1031D0003DFDE43CFC9009141213EB80B51269A28A
:1031E000EF3395E0900920F0A3EFF090091412134B
:1031F000F700000000209848E47F307E75FDFC90C9
:103200000914E0F8A3E0F9A3E0FAA3E0FBD312135A
:103210008D400C900924E4F0A37404F002358E90E4
:103220000914E0FCA3E0FDA3E0FEA3E02401FFE419
:103230003EFEE43DFDE43CFC9009141213EB80B526
:103240001269A2EF3395E0900920F0A3EFF0E4A318
:10325000F0A3F09009141213F70000000020982743
:10326000E47F307E75FDFC900914E0F8A3E0F9A33B
:10327000E0FAA3E0FBD312138D40E2900924E4F0BE
:10328000A37405F002358E1269A2EF3395E0900920
:1032900020F0A3EFF0A3E0FCA3E0242BF582740858
:1032A0003CF583EFF0900923E004F07006900922CA
:1032B000E004F0C3900923E09480900922E0940098
:1032C00040919009141213F700000000209848E480
:1032D0007F307E75FDFC900914E0F8A3E0F9A3E0CF
:1032E000FAA3E0FBD312138D400C900924E4F0A361
:1032F0007406F002358E900914E0FCA3E0FDA3E013
:10330000FEA3E02401FFE43EFEE43DFDE43CFC902E
:1033100009141213EB80B51269A2900920E4F0A3FE
:10332000EFF0E0F8E4F0E8900920F09009141213AF
:10333000F700000000209848E47F307E75FDFC9087
:103340000914E0F8A3E0F9A3E0FAA3E0FBD3121319
:103350008D400C900924E4F0A37407F002358E90A0
:103360000914E0FCA3E0FDA3E0FEA3E02401FFE4D8
:103370003EFEE43DFDE43CFC9009141213EB80B5E5
:103380001269A2900920E0F0A3E04FF07B017A08D7
:10339000792B7D807C001265FF900920E06E700320
:1033A000A3E06F60117F151268707BFF7A49792363
:1033B0001239A50230EA1268CDC2FA75A302E5A15E
:1033C00020E0FBAFA3900920E4F0A3EFF0E47F80BE
:1033D000FEFDFC900918E0F8A3E0F9A3E0FAA3E0F1
:1033E000FB12127090090CE0F8A3E0F9A3E0FAA335
:1033F000E02FFFEA3EFEE93DFDE83CFC78101213A9
:103400009E8FA3E5A120E0FBAFA3900920E4F0A3E9
:10341000EFF0E47F80FEFDFC900918E0F8A3E0F9EE
:10342000A3E0FAA3E0FB12127090090CE0F8A3E00D
:10343000F9A3E0FAA3E02FFFEA3EFEE93DFDE83CF8
:10344000FC780812139E8FA3E5A120E0FBAFA390A8
:103450000920E4F0A3EFF0E47F80FEFDFC90091862
:10346000E0F8A3E0F9A3E0FAA3E0FB121270AB07C7
:1034700090090CA3A3A3E02BF5A3E5A120E0FBAFEB
:10348000A3900920E4F0A3EFF0E4A3F0A3F09009E7
:1034900022E0FEA3E0FFC39480EE940040030235D7
:1034A00065742B2FF58274083EF583E0FE3395E0BA
:1034B000900920F0A3CEF0E4FFFEFDFC900910E09F
:1034C000F8A3E0F9A3E0FAA3E0FBC312138D604F69
:1034D000900910E0FCA3E0FDA3E0FEA3E0FF90094B
:1034E0001CE0F8A3E0F9A3E0FAA3E0FBC312138DFC
:1034F0005062900920A3E0F5A390091CE0FCA3E032
:10350000FDA3E0FEA3E02401FFE43EFEE43DFDE474
:103510003CFC90091C1213EBE5A120E0FB802B90F2
:103520000920A3E0F5A390091CE0FCA3E0FDA3E0C3
:10353000FEA3E02401FFE43EFEE43DFDE43CFC90FC
:10354000091C1213EBE5A120E0FBAFA3900920E4D6
:10355000F0A3EFF0900923E004F07006900922E058
:1035600004F002348ED2FA900918E0FCA3E0FDA327
:10357000E0FEA3E02401FFE43EFEE43DFDE43CFC6C
:103580009009181213EB7F061268700230EAD29588
:10359000C2967BFF7A49792D900924E0FFA3E09041
:1035A0000937CFF0A3EFF01239A5C322455A5233A1
:1035B000324C4700455A523332574700455A52332E
:1035C0003248470045464D333247470045464D3364
:1035D000324C470045464D333257470045464D3340
:1035E00032470045464D333254470045464D33324D
:1035F00048470045464D33325A470045464D333221
:103600004A4731420045464D33325047314200452A
:10361000464D333250473132420045464D33324AEF
:10362000473132420045464D333250473133420034
:1036300045464D33324A47313342004546523332D4
:103640004D4731500045465233324D4731420045D7
:10365000465233324D473156004546523332424787
:1036600031500045465233324247314200454652BE
:103670003332424731560045465233325347315078
:1036800000454652333253473142004546523332A9
:103690005347315600454652333246473150004574
:1036A000465233324647314200454652333246474E
:1036B00031560045465233324D473132500045466F
:1036C0005233324D473132420045465233324D4734
:1036D000313256004546523332424731325000456E
:1036E000465233324247313242004546523332422B
:1036F0004731325600454652333246473132500048
:103700004546523332464731324200454652333203
:1037100046473132560045465233324D47313350D9
:103720000045465233324D4731334200454652330D
:10373000324D4731335600454652333242473133DA
:1037400050004546523332424731334200454652DB
:1037500033324247313356005A474D3133305330BC
:1037600033372F45465233324647313350004546B2
:103770005233324647313350004546523332464782
:1037800031334200454652333246473133560045C5
:10379000465233324D473134500045465233324D54
:1037A000473134420045465233324D47313456009A
:1037B0004546523332424731345000454652333247
:1037C0004247313442004546523332424731345643
:1037D0000045465233324647313450004546523355
:1037E000324647313442004546523332464731343F
:1037F000560045465233325A473134500045464D03
:10380000333247473131420045464D333254473118
:103810003142007900FF35AC7800FF35B47A00FF03
:1038200035BC4800FF35C44A00FF35CC4B00FF359E
:10383000D44700FF35DC4900FF35E34D00FF35EB91
:103840004C00FF35F35301FF35FB5101FF360555A1
:1038500001FF360F5701FF361A5901FF36255B016C
:10386000FF36301001FF363B1101FF36451201FFD4
:10387000364F1301FF36591401FF36631501FF3629
:103880006D1601FF36771701FF36811801FF368B61
:103890001901FF36951A01FF369F1B01FF36A91C3F
:1038A00001FF36B31D01FF36BE1E01FF36C91F01E1
:1038B000FF36D42001FF36DF2101FF36EA2501FF64
:1038C00036F52601FF37002701FF370B2801FF37A8
:1038D000162901FF37212A01FF372C2B01FF37372B
:1038E0002C01FF37422D01FF374D2E01FF37583194
:1038F00001FF376E3201FF37793301FF378434011E
:10390000FF378F3501FF379A3601FF37A53701FFA3
:1039100037B03801FF37BB3901FF37C63D01FF37EC
:10392000D13E01FF37DC3F01FF37E73A01FF37F2B5
:103930006402FF37FD6702FF3808E5082437F58287
:10394000E43409F583E0050822900934303103900E
:103950000937E475F00112184E02118E202AE97F12
:103960002ED22A8018EF540F2490D43440D4FF3044
:103970002E0BEF24BFB41A0050032461FFE5096049
:10398000021509050CE50C7002050B30310E90098B
:1039900034E475F00112184EEF0217660268707475
:1039A00003D2318003E4C231F50890093412187C47
:1039B000E4F509F50BF50CE50960077F2012397D68
:1039C00080F5750AFFC22BC22AC22CC22DC22FC29B
:1039D00030C232123949FF700D3031057F00123983
:1039E0008EAF0CAE0B22B4255FC2D5C22E12394960
:1039F000FF24D0B40A00501A75F00A780930D505B2
:103A000008B6FF0106C6A426F620D5047002D22D02
:103A100080D924CFB41A00EF5004C2E5D22E023B65
:103A20008FD22B80C6D22A80C0D22C80BCD2D58027
:103A3000BAD22F80B47F2012397D202C077401B5B3
:103A4000090040F112393AFF12397D0239B7D232FA
:103A5000D230809512393AFB12393AFA12393AF9D2
:103A60004A4B700679607A3C7BFF202C2EE509607A
:103A70002A7E008E8275830012173960060EEE656D
:103A80000A70F0C2D5EBC0E0EAC0E0E9C0E0EE1297
:103A90003BD6D0E0F9D0E0FAD0E0FB12118EFF6007
:103AA000AAEBC0E0EAC0E0E9C0E012397DD0E02432
:103AB00001F9D0E03400FAD0E0FBE50A0460DCD57F
:103AC0000AD980877BFF7A3B79D2D22C809C7910EF
:103AD00080027908C230C2328008D2D5790A8004C7
:103AE000790AC2D5E50A047002F50AE4FAFDFEFF80
:103AF00012393AFC7B08202B1312393AFD7B103027
:103B00002A0A12393AFE12393AFF7B20EC3382D569
:103B100092D55013C3E4302A069FFFE49EFEE420B2
:103B20002B039DFDE49CFCE4CBF8C22BEC700CCF86
:103B3000CECDCCE824F8F870F38017C3EF33FFEE56
:103B400033FEED33FDEC33FCEB33FB994002FB0F0E
:103B5000D8E9EB302B05F8D0E0C448B22BC0E00A1E
:103B6000EC4D4E4F78207B0070C2EAB50A0040BC95
:103B7000C0E0123BD8D0F0D0E0202B04C4C0E0C499
:103B8000B22BC0F0123966D0F0D5F0EB0239B71283
:103B900018853A54533ACE583A254C3A21423AD2F3
:103BA0004F3ADA443ADA493A3A433AE0553AC446A7
:103BB0003AC4453AC4473C80503A292D3A2D2E3A12
:103BC000502B3A31233A4E203C692A39E94800000B
:103BD0003A483F3F3F00790AA2D5202D14302F09E3
:103BE000B910020404B9080104A2D5203002500122
:103BF00004202C68922CB509005034C0E07F20309E
:103C00002D197F30A22C7230722F500F123C2FC210
:103C10002CC230C22FC2327F30800F302F03E9C058
:103C2000E012397D302F03D0E0F9D0E0B509CC3077
:103C30002F177F30B9100C12397D7F58302E077F37
:103C4000788003B9080312397D302C057F2D0239A5
:103C50007D7F202032F87F2B2030F322922C80CFE2
:103C6000286E756C6C2900D22B12393A302BF8C2B1
:103C70002B780930D50108F60239E92D504349580F
:103C800012393A2403B405004001E4903C7B9312BE
:103C9000396E743A12396ED22D750904023ACEE5A6
:103CA00008302B0104F823282413F582E43409F5A5
:103CB0008322900910302B03900913E475F0011250
:103CC000184E02118E60EAC50C7002150B14C50C5B
:103CD000202B04FF0269B490091074FFF5F002185C
:103CE00065FF026924E5096006D509037F002220EB
:103CF0002B0F126910EF6008050CE50C7002050B24
:103D00002290091012184512118EFF60E8900910D8
:103D1000E475F00112184E80DC123CEFEFC0E012A7
:103D20003CE1D0E040F3809DD22B8002C22B900971
:103D30001012187CE4F50AF508F50BF50C7509006E
:103D4000C22AC228C229C22C123CB2FF7005AF0A97
:103D50007E0022B42530123CB2FF24D0B40A0050B9
:103D60000C75F00AC509A42509F50980E924CFB42A
:103D70001A00EF5002C2E5023F8DD22980D8D22826
:103D800080D4D22C80D0EF123CE15008123D19EFC4
:103D9000600E80A9EFC0E0123CEFD0E06F609EEFB4
:103DA0006074123CC580A7123CEFEF6069E50970B2
:103DB0000705098003123CEFEF6014202C0E123C23
:103DC0009FE475F00112184EEF121766D509E62030
:103DD0002C040508050A80BA123CE5EFC0E0123C4D
:103DE000E1D0E05004123CC5E4FF202C0E123C9FB1
:103DF000E475F00112184EEF121766EF70DA202CFE
:103E0000040508050A808BE50960020509123D19C1
:103E1000123CE5EF70C6302B04E4123CC5E50A60A5
:103E200003023D4E7EFF7FFF22202C1174FFFCFD1C
:103E3000FEFF123C9F1218451213D10508023D3DAA
:103E4000D0E080D27900800A79108006790880025B
:103E5000790AD22DE50960020509E9C0E0123D1991
:103E6000EF60DD123CEFBF2D04D22A8003BF2B0987
:103E7000123D19EF60CA123CE5D0E0B40A0280336B
:103E8000B40802802EBF302770027408C22DC0E033
:103E9000123CE5D0E0BF78028003BF58160509D573
:103EA00009028007D50904D22D800B741080197087
:103EB00002740ABF000AEFF8E4FCFDFEFF023F4077
:103EC000C0E0EF123CC5D0E0F9E4FCFDFEFFE9C024
:103ED000E0ECC0E0EDC0E0EEC0E0EFC0E0123CE599
:103EE000EFF8D0E0FFD0E0FED0E0FDD0E0FCD0F075
:103EF000E8604DB461004007B47B005002C2E52485
:103F0000D0503DFA24F6500724F95034240AFAEA36
:103F1000B5F000502BCFA9F0A42FFF92D5E9C5F042
:103F2000CEA4A2D53EFE92D5E9C5F0CDA4A2D53D42
:103F3000FD92D5E9C5F0CCA4A2D53CFCC22D808E63
:103F4000E8C0E0202C2A202D08050A302A03121789
:103F5000B9123C9F121845050820280B20290DEEA8
:103F60008FF012179A80091213D18004EF1217668E
:103F7000D0E0123CC5023D3D202C10123C9F12188F
:103F8000450508E50B850CF012179A80E812188594
:103F90003E07533E48583D7E4C3D7A423D56483E92
:103FA0004C4F3E50443DA7433E44493E50553E2968
:103FB000463E29453E29473D822A3F784E00003D36
:103FC0008643E10143A60253A6D743A028C2A220FC
:103FD000A2FD7F017E0012689BD2A230A2FD7F6409
:103FE0007E0012689B12695E7F9E1265997FE712C0
:103FF000659912695EE4FF126599126599FD7FA5C6
:10400000125D047BFF7A6479ABAF24AE23AD22ACA2
:10401000219009371213EB1239A5AC21AD22AE2342
:10402000AF2412144E40500BB1147740500BC11402
:104030007740500BC1247740502BA0147740506B31
:10404000A02477000040477BFF7A6479BA024222BD
:10405000E475241EF523F522F521FD7F81125D0410
:10406000E4FF126599F524F523F522F521FD7FA9DA
:10407000125D04E475241EF523F522F521FD7F81F0
:10408000125D04E4FF126599F524F523F5227521EC
:1040900050FD7FA9125D049009101213F700000073
:1040A00000E47F03FEFDFC900910E0F8A3E0F9A313
:1040B000E0FAA3E0FBC312138D503DE4FD7F8D12A7
:1040C0005D04E4FFFEFDE52154A0FCE4FBFAF97871
:1040D000A0C312138D6021900910E0FCA3E0FDA3A2
:1040E000E0FEA3E02401FFE43EFEE43DFDE43CFCF1
:1040F0009009101213EB80A9E4FFFEFDE52154A006
:10410000FCE4FBFAF978A0C312138D60097BFF7AF7
:104110006479C40242229009101213F700000000D3
:10412000E47F03FEFDFC900910E0F8A3E0F9A3E0B2
:10413000FAA3E0FBC312138D4003024202E475248C
:10414000F0F523F522F521FD7FB1125D04E475241D
:1041500003F523F522F521FD7F8B125D04E4FF12A8
:104160006599FD7F9F125D04E4FF126599FD7FBD97
:10417000125D047BFF7A6479DBAF24AE23AD22AC01
:10418000219009371213EB1239A5AC21AD22AE23D1
:10419000AF2412144E41BD0477002141BD047700C5
:1041A0003141C916E6000141BD2477001141C926FD
:1041B000E6001141BD84770001000041D89009104C
:1041C0001213F70000000480171269CB7BFF7A649A
:1041D00079EC1239A57F02227BFF7A6479F980425B
:1041E000900910E0FCA3E0FDA3E0FEA3E02401FFA2
:1041F000E43EFEE43DFDE43CFC9009101213EB02AA
:104200004120E47F03FEFDFC900910E0F8A3E0F9F3
:10421000A3E0FAA3E0FBC312138D7BFF700F7A6457
:1042200079F91239A590095C7404F080467A6579B1
:10423000021239A5E475241EF523F522F521FD7F30
:1042400081125D04E4F524F523F522F521FD7FB10B
:10425000125D047524F07523ED7522007521E012BE
:104260005D00E4752402F523F522752123FD7FA36B
:10427000125D0490095CE07BFFB401067A65790564
:1042800080047A6579101239A57F002290091012F6
:1042900013EB9009201213F7000004007BFF7A490A
:1042A000793F900910E0FCA3E0FDA3E0FEA3E0FF4E
:1042B0009009371213EB900914E0FCA3E0FDA3E092
:1042C000FEA3E0FF90093B1213EB900918E0FCA35A
:1042D000E0FDA3E0FEA3E0FF90093F1213EB1239CB
:1042E000A5C2FA75A303E5A120E0FBAFA3AB077A53
:1042F00000900910E0FCA3E0FDA3E0FEA3E0FF783E
:104300001012139E8FA3E5A120E0FBAFA37A00ABB0
:1043100007900910E0FCA3E0FDA3E0FEA3E0FF7816
:104320000812139E8FA3E5A120E0FBAFA37A00AB98
:1043300007900910A3A3A3E0F5A3E5A120E0FBAF3C
:10434000A37A00AB0790091C1213F700000000903D
:104350000920E0F8A3E0F9A3E0FAA3E0FB90091834
:10436000E0FCA3E0FDA3E0FEA3E0FF1212FB900936
:104370001CE0F8A3E0F9A3E0FAA3E0FBC312138D5D
:104380004003024408B295900920E0FCA3E0FDA39D
:10439000E0FEA3E0FF90091CE0F8A3A3A3E0121243
:1043A00070900914E0F8A3E0F9A3E0FAA3E02FFF6E
:1043B000EA3EFEE93DFDE83CFCC004C005C006C085
:1043C00007900920E0FCA3E0FDA3E0FEA3E0FF903E
:1043D00009281213EBC228D229D007D006D005D065
:1043E000041218AB502290091CE0FCA3E0FDA3E0EE
:1043F000FEA3E02401FFE43EFEE43DFDE43CFC902E
:10440000091C1213EB02434F900920E0FCA3E0FDCE
:10441000A3E0FEA3E0FF90091CE0F8A3E0F9A3E00D
:10442000FAA3E0FB121270900914E0F8A3E0F9A3DC
:10443000E0FAA3E02FFFEA3EFEE93DFDE83CFCC0C8
:1044400004C005C006C007900920E0F8A3E0F9A366
:10445000E0FAA3E0FB900918E0FCA3E0FDA3E0FE76
:10446000A3E0FF1212FBAC00AD01AE02AF03900956
:10447000281213EBC228D229D007D006D005D004C9
:104480001218ABD2FA7BFF7A4879101239A5B2958F
:10449000900918E0FCA3E0FDA3E0FEA3E0FF900973
:1044A000281213EB90092C7401F0A37409F0A37483
:1044B0001CF0900910E0FCA3E0FDA3E0FEA3E0FFE8
:1044C000124F5BB295900918E0FCA3E0FDA3E0FE5B
:1044D000A3E0FF9009281213EB90092C7401F0A3BC
:1044E0007409F0A37420F0900914E0FCA3E0FDA38C
:1044F000E0FEA3E0FF125807D295900920E0FCA34C
:10450000E0FDA3E0FEA3E0FF90091CE0F8A3E0F9C2
:10451000A3E0FAA3E0FBC312138D600D7BFF7A4981
:10452000797B1239A5C296C322C2947BFF7A49795E
:104530008A1239A5D32278F87C087D017BFF7A495D
:104540007998121633EF700302637E78F87C087D49
:10455000017BFF7A49799E121633EF70030268CD12
:1045600078F87C087D017BFF7A4979AD121633EF2C
:10457000700302617B78F87C087D017BFF7A4979C2
:10458000BA121633EF601278F87C087D017BFF7A4F
:104590004979C9121633EF70119008ECE0FCA3E0E2
:1045A000FDA3E0FEA3E0FF0254DF78F87C087D0164
:1045B0007BFF7A4979D6121633EF70259008F0E028
:1045C000FCA3E0FDA3E0FEA3E0FF9009101213EBB3
:1045D0009008ECE0FCA3E0FDA3E0FEA3E0FF025B9B
:1045E000FC78F87C087D017BFF7A4979DF1216336D
:1045F000EF70487F02FEFDFC900907E0F8A3E0F9A8
:10460000A3E0FAA3E0FBC312138D700A9008F01226
:1046100013F7000000209008F0E0FCA3E0FDA3E009
:10462000FEA3E0FF9009101213EB9008ECE0FCA34E
:10463000E0FDA3E0FEA3E0FF02528D78F87C087D48
:10464000017BFF7A4979E7121633EF70249008F066
:10465000E0FCA3E0FDA3E0FEA3E0FF90091012132D
:10466000EB9008ECE0FCA3E0FDA3E0FEA3E0FF80FC
:104670002478F87C087D017BFF7A4979F0121633A3
:10468000EF70159009101213F7004000007F007EB4
:10469000007D007C00024A5C78F87C087D017BFF8D
:1046A0007A4979FD121633EF70329008F0E0FCA3DE
:1046B000E0FDA3E0FEA3E0FF9009281213EB9009B0
:1046C0002C7401F0A37408F0A374F4F09008ECE0EB
:1046D000FCA3E0FDA3E0FEA3E0FF803278F87C08B5
:1046E0007D017BFF7A4A7909121633EF7023900916
:1046F000281213F70040000090092C7401F0A374F5
:1047000008F0A374F4F07F007E007D007C00024F6F
:104710005B78F87C087D017BFF7A4A7919121633A1
:10472000EF60030247DD90091374FFF0A3744AF0B1
:10473000A37422F0A37401F0A37408F0A374F8F03A
:10474000A37401F0A37408F0A374ECF0A37401F057
:10475000A37408F0A374F0F07B017A0879B0123DDD
:1047600028EE3395E0FDFC9009071213EBE47F037C
:10477000FEFDFC900907E0F8A3E0F9A3E0FAA3E04E
:10478000FBC312138D60317BFF7A4A793A9008ECB3
:10479000E0FCA3E0FDA3E0FEA3E0FF9009371213C5
:1047A000EB9008F0E0FCA3E0FDA3E0FEA3E0FF90A7
:1047B000093B1213EB0239A59008F0E0FCA3E0FDE1
:1047C000A3E0FEA3E0FF9009101213EB9008ECE0C9
:1047D000FCA3E0FDA3E0FEA3E0FF12305E225350F5
:1047E00049204E6F7220666C6173682049443A20FC
:1047F00000253032782C2000253032780A003078BD
:10480000253032782066696E6973686564002E0011
:104810000A00526561642073706920666C61736878
:104820002066726F6D2030782530386C7820666F86
:10483000722030782530386C782042797465733A6C
:104840000A002530386C782000426C616E6B206362
:104850006865636B207370692041646472203D2039
:1048600030782530386C782C2030782530386C78CA
:104870002042797465730A004E4F5420424C414ED9
:104880004B2061742030782530386C782C2072658C
:1048900061643A2030782530386C7800424C414EC3
:1048A0004B00436865636B73756D2053504920411D
:1048B000646472203D2030782530386C782C2030AC
:1048C000782530386C782042797465732C2000305C
:1048D000782530386C780A0073706977726974656E
:1048E000776F72642061646472203078256C782C54
:1048F0002064617461203078256C780A0053656EFD
:10490000642066696C65207769746820584D4F444F
:10491000454D2E2E2E000A537563636573736675BD
:104920006C0A00435243206572726F72000A46613E
:10493000696C75726520636F64652025640A0043A5
:104940006F70792066726F6D205350492030782542
:1049500030386C7820746F20666C61736820307812
:104960002530386C782C2073697A652030782530B2
:10497000386C782042797465730A00436F6D7061FA
:104980007265206572726F720A0053756363657396
:104990007366756C0A002A0073706969640073702D
:1049A000697772697465656E61626C6500737069C0
:1049B00065726173656368697000737069657261BF
:1049C0007365736563746F72007370696572617388
:1049D00065706167650073706977726974650073EB
:1049E00070697265616400737069626C616E6B00FE
:1049F000737069626C616E6B636869700073706973
:104A0000636865636B73756D007370696368656374
:104A10006B73756D6368697000646F776E6C6F613E
:104A20006400646F776E6C6F61642025732030784A
:104A3000256C78203078256C7800646F776E6C6F09
:104A40006164206572726F72203078256C782C203A
:104A500064617461203078256C780A0090090C122A
:104A600013EBE4900918F0A3F07BFF7A48794990A2
:104A7000090CE0FCA3E0FDA3E0FEA3E0FF900937F2
:104A80001213EB900910E0FCA3E0FDA3E0FEA3E00D
:104A9000FF90093B1213EB1239A5C2FA75A303E587
:104AA000A120E0FBAFA3AB077A0090090CE0FCA3C8
:104AB000E0FDA3E0FEA3E0FF781012139E8FA3E5B4
:104AC000A120E0FBAFA37A00AB0790090CE0FCA3A8
:104AD000E0FDA3E0FEA3E0FF780812139E8FA3E59C
:104AE000A120E0FBAFA37A00AB0790090CA3A3A31E
:104AF000E0F5A3E5A120E0FBAFA37A00AB079009A6
:104B0000141213F700000000900910E0FCA3E0FD70
:104B1000A3E0FEA3E0FFA3E0F8A3E0F9A3E0FAA37B
:104B2000E0FBC312138D4003024BE6E4F5A3F5A3AB
:104B3000E5A120E0FB9008AFE5A3F0E4F5A3E5A133
:104B400020E0FB9008AEE5A3F0E4F5A3E5A120E0AA
:104B5000FB9008ADE5A3F0E5A120E0FB9008ACE5F3
:104B6000A3F074FFFFFEFDFCE0F8A3E0F9A3E0FA78
:104B7000A3E0FBC312138D604B900914E0FCA3E08B
:104B8000FDA3E0FEA3E0FF90090CE0F8A3E0F9A389
:104B9000E0FAA3E02FFFEA3EFEE93DFDE83CFC9091
:104BA00009371213EB9008ACE0FCA3E0FDA3E0FE94
:104BB000A3E0FF90093B1213EB7BFF7A4879781250
:104BC00039A58022900914E0FCA3E0FDA3E0FEA338
:104BD000E02404FFE43EFEE43DFDE43CFC900914C7
:104BE0001213EB024B08900910E0FCA3E0FDA3E0D8
:104BF000FEA3E0FFA3E0F8A3E0F9A3E0FAA3E0FB43
:104C0000C312138D40097BFF7A48799C1239A57B2A
:104C1000FF7A4879101239A5D2FA2290090B740153
:104C2000F0126842D299C294C295C2969008EC12D2
:104C300013F700000000E47F307E75FDFC9008EC67
:104C4000E0F8A3E0F9A3E0FAA3E0FBC312138D5050
:104C5000219008ECE0FCA3E0FDA3E0FEA3E024012A
:104C6000FFE43EFEE43DFDE43CFC9008EC1213EB57
:104C700080C4D294D295D2969008EC1213F700001B
:104C80000000E47F307E75FDFC9008ECE0F8A3E0C6
:104C9000F9A3E0FAA3E0FBC312138D503530820371
:104CA00020830E90090B7401F0C294C295C29680C5
:104CB000219008ECE0FCA3E0FDA3E0FEA3E02401CA
:104CC000FFE43EFEE43DFDE43CFC9008EC1213EBF7
:104CD00080B0E49008F8F09008B0F09008F4121357
:104CE000F7000000009008F01213F7000000009099
:104CF00008EC1213F70000000090090BE0B4011853
:104D00007BFF7A2A79E01239A57B017A0879B07D98
:104D10003C7C00125DE280153082032083FA78B07B
:104D20007C087D017BFF7A2A79E512171CD294D288
:104D300095D296C29590091374FFF0A3742AF0A33C
:104D400074EAF0A37401F0A37408F0A374F8F0A35C
:104D50007401F0A37408F0A374ECF0A37401F0A341
:104D60007408F0A374F0F07B017A0879B0123D2842
:104D7000EE3395E0FDFC9009071213EB122B0212A3
:104D8000453678F87C087D017BFF7A2A79F912167E
:104D900033EF602478F87C087D017BFF7A2A79FE66
:104DA000121633EF601278F87C087D017BFF7A2BB6
:104DB0007900121633EF700312590CD295024CD2BF
:104DC000726573657400756E6C6F636B00636F70F2
:104DD00079002573203078256C78203078256C7820
:104DE000203078256C7800636F707920307830201F
:104DF00030783130203078323020202020203A2086
:104E0000636F70792066726F6D205350492030783F
:104E10003020746F20666C61736820307831302CDC
:104E20002073697A6520307832300A00636F6E6EC5
:104E300000636F6E6E6563740052616D206C6F610C
:104E4000646572204F4B0A0052616D206C6F616483
:104E50006572206661696C65640A006465766963E1
:104E600065696E666F006C6F61646572006465628F
:104E700075670072656164007772697465007772A6
:104E800069746520666C61736820616464722030A7
:104E900078256C782C2064617461203078256C78DA
:104EA0000A0077726974656D656D00777269746563
:104EB0006D656D2061646472203078256C782C20DB
:104EC00064617461203078256C780A0065726173C2
:104ED000656368697000636D6465726173656368BA
:104EE00069700065726173657061676500636D6408
:104EF00065726173657061676500626C616E6B00FD
:104F0000626C616E6B6368697000636865636B7384
:104F1000756D00636865636B73756D6368697000B8
:104F20006175746F00436F6E6E65637400457261E6
:104F300073650052616D206C6F61646572204F4B28
:104F40000052616D206C6F61646572206661696CEE
:104F5000656400436F7079696E67009009241213CD
:104F6000EB90092CE0FBA3E0FAA3E0F9121428006F
:104F70000000007BFF7A4879A2900924E0FCA3E0BE
:104F8000FDA3E0FEA3E0FF9009371213EB90092880
:104F9000E0FCA3E0FDA3E0FEA3E0FF90093B1213B9
:104FA000EB1239A5C2FA75A303E5A120E0FBAFA37C
:104FB000AB077A00900924E0FCA3E0FDA3E0FEA388
:104FC000E0FF781012139E8FA3E5A120E0FBAFA3B2
:104FD0007A00AB07900924E0FCA3E0FDA3E0FEA368
:104FE000E0FF780812139E8FA3E5A120E0FBAFA39A
:104FF0007A00AB07900924A3A3A3E0F5A3E5A120C1
:10500000E0FBAFA37A00AB0790092F1213F7000063
:105010000000900928E0FCA3E0FDA3E0FEA3E0FF70
:1050200090092FE0F8A3E0F9A3E0FAA3E0FBC31294
:10503000138D40030250C1E4F5A3F5A3E5A120E0E0
:10504000FB9008AFE5A3F0E4F5A3E5A120E0FB9019
:1050500008AEE5A3F0E4F5A3E5A120E0FB9008ADE0
:10506000E5A3F0E5A120E0FB9008ACE5A3F09009F2
:105070002CE0FBA3E0FAA3E0F9C002C0011213B1D7
:105080009008ACE0F8A3E0F9A3E0FAA3E02FFFEA70
:105090003EFEE93DFDE83CFCD001D0021213D19068
:1050A000092FE0FCA3E0FDA3E0FEA3E02404FFE45D
:1050B0003EFEE43DFDE43CFC90092F1213EB025050
:1050C00012D2FA90092CE0FBA3E0FAA3E0F9121344
:1050D000B19009371213EB7BFF7A4879CF1239A5CB
:1050E00090092CE0FBA3E0FAA3E0F91213B1EC4D18
:1050F0004E4F24FF227F007E207D007C201268140A
:105100007BFF7A247926AF24AE23AD22AC2190090F
:10511000371213EB1239A57F047E207D007C20120C
:1051200068147BFF7A247943AF24AE23AD22AC21EF
:105130009009371213EB1239A57F087E207D007C81
:10514000201268147BFF7A247960AF24AE23AD224D
:10515000AC219009371213EB1239A57F0C7E207D0C
:10516000007C201268147BFF7A24797DAF24AE2363
:10517000AD22AC219009371213EB1239A57F107EB6
:10518000207D007C201268147BFF7A24799AAF245A
:10519000AE23AD22AC219009371213EB1239A57F53
:1051A000147E207D007C201268147BFF7A2479B75E
:1051B000AF24AE23AD22AC219009371213EB123984
:1051C000A57F187E207D007C201268147BFF7A2446
:1051D00079D4AF24AE23AD22AC219009371213EB62
:1051E0001239A57F1C7E207D007C201268147BFF75
:1051F0007A2479F1AF24AE23AD22AC219009371285
:1052000013EB1239A57F207E207D007C20126814CC
:105210007BFF7A25790EAF24AE23AD22AC21900915
:10522000371213EB1239A57F247E207D007C2012DB
:1052300068147BFF7A25792BAF24AE23AD22AC21F5
:105240009009371213EB1239A57F287E207D007C50
:10525000201268147BFF7A257948AF24AE23AD2253
:10526000AC219009371213EB1239A57F2C7E207DDB
:10527000007C201268147BFF7A257965AF24AE2369
:10528000AD22AC219009371213EB0239A590090C1D
:105290001213EB7BFF7A48791290090CE0FCA3E033
:1052A000FDA3E0FEA3E0FF9009371213EB90091075
:1052B000E0FCA3E0FDA3E0FEA3E0FF90093B121396
:1052C000EB1239A5C2FA75A303E5A120E0FBAFA359
:1052D000AB077A0090090CE0FCA3E0FDA3E0FEA37D
:1052E000E0FF781012139E8FA3E5A120E0FBAFA38F
:1052F0007A00AB0790090CE0FCA3E0FDA3E0FEA35D
:10530000E0FF780812139E8FA3E5A120E0FBAFA376
:105310007A00AB0790090CA3A3A3E0F5A3E5A120B5
:10532000E0FBAFA3AB07E4900914F0A3F0900914DD
:10533000E0FEA3E0FFEE3395E0FDFC900910E0F8FD
:10534000A3E0F9A3E0FAA3E0FBD312138D4062E4DB
:10535000F5A3F5A3E5A120E0FB9008AFE5A3F0E4F9
:10536000F5A3E5A120E0FB9008AEE5A3F0E4F5A3EA
:10537000E5A120E0FB9008ADE5A3F0E5A120E0FB6E
:105380009008ACE5A3F07BFF7A487942E0FCA3E00B
:10539000FDA3E0FEA3E0FF9009371213EB1239A53D
:1053A000900915E02404F0900914E03400F0025351
:1053B0002D7BFF7A4879101239A5D2FA2290091074
:1053C0001213EB7BFF7A2379A1900910E0FCA3E094
:1053D000FDA3E0FEA3E0FF9009371213EB90091440
:1053E000E0FCA3E0FDA3E0FEA3E0FF90093B121365
:1053F000EB1239A590095C7401F0900910E0FCA350
:10540000E0FDA3E0FEA3E0FF9009381213EB7F203C
:105410007E207D007C201267DB900914E0FCA3E075
:10542000FDA3E0FEA3E0FF9009381213EB7F287E76
:10543000207D007C201267DB9009381213F70000F2
:1054400000037F0C7E207D007C201267DB90095CCE
:10545000E06401600B7BFF7A2379CB1239A5C3226C
:105460007F0C7E207D007C20126814E47F03FEFD0B
:10547000FCAB24AA23A922A821C312138D60CE7FDE
:10548000107E207D007C2012681474FFFFFEFDFC5E
:10549000AB24AA23A922A821C312138D7BFF603657
:1054A0007A2379D3AF24AE23AD22AC2190093712F1
:1054B00013EB1239A5AF24AE23AD22AC2112681430
:1054C0007BFF7A23791EAF24AE23AD22AC21900955
:1054D000371213EB80047A2379F01239A5D3229086
:1054E000090C1213EB1268CDC2FA75A320E5A120B6
:1054F000E0FBAFA3900910E4F0A3EFF090090CE0FB
:10550000FCA3E0FDA3E0FEA3E0FF781012139E8F42
:10551000A3E5A120E0FBAFA3900910E4F0A3EFF016
:1055200090090CE0FCA3E0FDA3E0FEA3E0FF7808F7
:1055300012139E8FA3E5A120E0FBAFA3900910E416
:10554000F0A3EFF090090CA3A3A3E0F5A3E5A1203D
:10555000E0FBAFA3900910E4F0A3EFF0D2FAC2FA97
:1055600075A305E5A120E0FBAFA3900910E4F0A32B
:10557000EFF0E4A3F0A3F07F0A7E0012689B75A30E
:1055800005E5A120E0FBAFA3900910E4F0A3EFF044
:10559000900910E0FEA3E0FF20E0137BFF7A47793B
:1055A000FE900937EEF0A3EFF01239A5803B900989
:1055B00012E0FEA3E0FF7C007DA012120EED4C7005
:1055C000097BFF7A48790E1239A5900913E004F09F
:1055D0007006900912E004F0C3900913E094309033
:1055E0000912E0648094F5408ED2FA7BFF7A487904
:1055F000100239A59009101213EB9009187464F089
:1056000090095C7401F09009381213F700001B71C7
:10561000900813E0FCA3E0FDA3E0FEA3E0FF126707
:10562000DB9009381213F700000001900823E0FC1A
:10563000A3E0FDA3E0FEA3E0FF1267DB900910E00A
:10564000FCA3E0FDA3E0FEA3E0FF9009381213EBFA
:1056500090080AE0FCA3E0FDA3E0FEA3E0FF1267D0
:10566000DB9009381213F70000000190081FE0FCDE
:10567000A3E0FDA3E0FEA3E0FF1267DB900914E0C6
:10568000FCA3E0FDA3E0FEA3E0FF9009381213EBBA
:1056900090080EE0FCA3E0FDA3E0FEA3E0FF12678C
:1056A000DB9009381213F70000000890081FE0FC97
:1056B000A3E0FDA3E0FEA3E0FF1267DBE49009187E
:1056C000F090095CE064016002C322900827E0FCCE
:1056D000A3E0FDA3E0FEA3E0FF126814E52454015B
:1056E000FFE4FEFDFCFBFAF9F8C312138D7002D340
:1056F00022900918E004F0E0C3946440C4C32290EF
:10570000095C7401F07BFF7A237902900006E0FCCB
:10571000A3E0FDA3E0FEA3E0FF9009371213EB1214
:1057200039A5900006E0FCA3E0FDA3E0FEA3E0FFA6
:105730009009381213EB7F047E207D007C201267D5
:10574000DB9009381213F7000000027F0C7E207DE9
:10575000007C201267DBE4900910F0A3F090095C54
:10576000E064016002C3227F0C7E207D007C201259
:105770006814E47F01FEFDFCAB24AA23A922A82122
:10578000C312138D601F900911E004F07006900998
:1057900010E004F0C3900911E09464900910E064F3
:1057A00080948040B8E47F01FEFDFCAB24AA23A9CD
:1057B00022A821C312138D7BFF701A7A23791E90C1
:1057C0000823E0FCA3E0FDA3E0FEA3E0FF9009377F
:1057D0001213EB80047A2379271239A57F107E20DB
:1057E0007D007C20126814AC21AD22AE23AF2412C0
:1057F000144E57FC00000013000058057BFF7A236D
:10580000792E1239A5D3229009241213EB7BFF7A4B
:10581000237969900924E0FCA3E0FDA3E0FEA3E066
:10582000FF9009371213EB900928E0FCA3E0FDA3D9
:10583000E0FEA3E0FF90093B1213EB1239A590099B
:105840002CE0FBA3E0FAA3E0F9121428000000000A
:1058500090095C7401F0900924E0FCA3E0FDA3E052
:10586000FEA3E0FF9009381213EB7F207E207D001D
:105870007C201267DB900928E0FCA3E0FDA3E0FE9A
:10588000A3E0FF9009381213EB7F287E207D007C77
:10589000201267DB9009381213F7000000077F0C15
:1058A0007E207D007C201267DB90095CE064016053
:1058B00002C3227F0C7E207D007C20126814E47FCE
:1058C00007FEFDFCAB24AA23A922A821C312138D35
:1058D00060D77F147E207D007C20126814AF24AE38
:1058E00023AD22AC2190092CE0FBA3E0FAA3E0F960
:1058F0001213D17BFF7A237997AF24AE23AD22AC6C
:10590000219009371213EB1239A5D3227BFF7A2598
:1059100079861239A57BFF7A2579B11239A57BFFEB
:105920007A2579E71239A57BFF7A2679101239A5F5
:105930007BFF7A26791F1239A57BFF7A26794D12D3
:1059400039A57BFF7A2679871239A57BFF7A2679DC
:10595000BB1239A57BFF7A2679F31239A57BFF7A32
:105960002779201239A57BFF7A27794D1239A57B3B
:10597000FF7A2779861239A57BFF7A2779BF1239FA
:10598000A57BFF7A2779F31239A57BFF7A28792046
:105990001239A57BFF7A2879551239A57BFF7A2821
:1059A00079861239A57BFF7A2879AE1239A57BFF5B
:1059B0007A2879D71239A57BFF7A2979001239A57F
:1059C0007BFF7A2979291239A57BFF7A297961121F
:1059D00039A57BFF7A2979951239A57BFF7A297938
:1059E000C91239A57BFF7A2979F61239A57BFF7A8E
:1059F0002A792B1239A57BFF7A2A79581239A57B8F
:105A0000FF7A2A799B0239A590095C7401F090090C
:105A1000381213F700001B71900813E0FCA3E0FD9F
:105A2000A3E0FEA3E0FF1267DB9009381213F70032
:105A300000631A90081BE0FCA3E0FDA3E0FEA3E0D6
:105A4000FF1267DB9009381213F70000000190087D
:105A500023E0FCA3E0FDA3E0FEA3E0FF1267DBE48C
:105A60007F04FEFDFC900006E0F8A3E0F9A3E0FA55
:105A7000A3E0FBC312138D9009381213F700000145
:105A80000090081FE0FCA3E0FDA3E0FEA3E0FF12EE
:105A900067DBE4900910F0A3F090095CE06401601A
:105AA000087BFF7A1F79C58055126897900827E018
:105AB000FCA3E0FDA3E0FEA3E0FF126814E524547C
:105AC00001FFE4FEFDFCFBFAF9F8C312138D700B25
:105AD0007BFF7A1F79D81239A5D322900911E004EF
:105AE000F07006900910E004F0C3900911E094F4FE
:105AF000900910E0940140A17BFF7A1F79ED1239E3
:105B0000A5C3229009101213EB9009147464F0904D
:105B1000095C7401F09009381213F700001B7190B2
:105B20000813E0FCA3E0FDA3E0FEA3E0FF1267DBA7
:105B30009009381213F700000001900823E0FCA33D
:105B4000E0FDA3E0FEA3E0FF1267DB900910E0FC9C
:105B5000A3E0FDA3E0FEA3E0FF9009381213EB9051
:105B6000080AE0FCA3E0FDA3E0FEA3E0FF1267DB70
:105B70009009381213F70000000190081FE0FCA301
:105B8000E0FDA3E0FEA3E0FF1267DB9009381213EB
:105B9000F70000000290081FE0FCA3E0FDA3E0FE78
:105BA000A3E0FF1267DBE4900914F090095CE06465
:105BB00001703E126897900827E0FCA3E0FDA3E087
:105BC000FEA3E0FF126814E5245401FFE4FEFDFC8F
:105BD000FBFAF9F8C312138D700B7BFF7A20790161
:105BE0001239A5D322900914E004F0E0C394C84010
:105BF000BA7BFF7A2079161239A5C32290090C12BC
:105C000013EB7BFF7A4879D890090CE0FCA3E0FD08
:105C1000A3E0FEA3E0FF9009371213EB900910E018
:105C2000FCA3E0FDA3E0FEA3E0FF90093B1213EB11
:105C30001239A51268CDC2FA75A302E5A120E0FBD6
:105C4000AFA3AB077A0090090CE0FCA3E0FDA3E052
:105C5000FEA3E0FF781012139E8FA3E5A120E0FBC6
:105C6000AFA37A00AB0790090CE0FCA3E0FDA3E032
:105C7000FEA3E0FF780812139E8FA3E5A120E0FBAE
:105C8000AFA37A00AB0790090CA3A3A3E0F5A3E5AB
:105C9000A120E0FBAFA37A00AB07900910E0FCA3C2
:105CA000E0FDA3E0FEA3E0FF9008AC1213EB900828
:105CB000AFE0F5A3E5A120E0FBAFA37A00AB07902E
:105CC00008AEE0F5A3E5A120E0FBAFA37A00AB07A7
:105CD0009008ADE0F5A3E5A120E0FBAFA37A00AB0F
:105CE000079008ACE0F5A3E5A120E0FBAFA3AB076C
